:10000000A49EA49E4EEF00F0046ED8CF05F0E0CF82
:1000100006F00001E9CF0CF0EACF07F0E1CF08F0DD
:10002000E2CF09F0D9CF0AF0DACF0BF0F3CF12F01C
:10003000F4CF13F0FACF14F0F5CF15F0F6CF16F099
:10004000F7CF17F000C00EF001C00FF002C010F0A3
:1000500003C011F0F2AA30EF00F0F2B48FEF01F01C
:100060009DA236EF00F09EB2A8EF01F09DAA3CEFF2
:1000700000F09EBA0DEF02F0A3AE42EF00F0A4BE76
:1000800000EF00F0A3A248EF00F0A4B21DEF04F0CF
:10009000A3A04EEF00F0A4B044EF03F00EC000F0B8
:1000A0000FC001F010C002F011C003F00CC0E9FF56
:1000B00007C0EAFF078E08C0E1FF09C0E2FF0AC0DF
:1000C000D9FF0BC0DAFF12C0F3FF13C0F4FF14C056
:1000D000FAFF15C0F5FF16C0F6FF17C0F7FF045072
:1000E00006C0E0FF05C0D8FF1000F76AFA0FF66EF1
:1000F000000EF7220900F550120000C1814001C036
:10010000804101C0804100C1814001C0804100C1E7
:10011000814000C1814001C0804101C0804100C1D7
:10012000814000C1814001C0804100C1814001C0C7
:10013000804101C0804100C1814001C0804100C1B7
:10014000814000C1814001C0804100C1814001C0A7
:10015000804101C0804100C1814000C1814001C097
:10016000804101C0804100C1814001C0804100C187
:10017000814000C1814001C0804101C0804100C177
:10018000814000C1814001C0804100C1814001C067
:10019000804101C0804100C1814000C1814001C057
:1001A000804101C0804100C1814001C0804100C147
:1001B000814000C1814001C0804100C1814001C037
:1001C000804101C0804100C1814001C0804100C127
:1001D000814000C1814001C0804101C0804100C117
:1001E000814000C1814001C0804100C1814001C007
:1001F000804101C0804100C18140F76A0A0FF66E5C
:10020000020EF7220900F550120000C0C101C3031D
:1002100002C2C60607C705C5C404CC0C0DCD0FCF5E
:10022000CE0E0ACACB0BC90908C8D81819D91BDBCE
:10023000DA1A1EDEDF1FDD1D1CDC14D4D515D7171E
:1002400016D6D21213D311D1D010F03031F133F3CE
:10025000F23236F6F737F53534F43CFCFD3DFF3F1E
:100260003EFEFA3A3BFB39F9F83828E8E929EB2B4E
:100270002AEAEE2E2FEF2DEDEC2CE42425E527E7DE
:10028000E62622E2E323E12120E0A06061A163A34E
:10029000A26266A6A767A56564A46CACAD6DAF6FDE
:1002A0006EAEAA6A6BAB69A9A86878B8B979BB7B4E
:1002B0007ABABE7E7FBF7DBDBC7CB47475B577B79E
:1002C000B67672B2B373B17170B0509091519353CE
:1002D000529296565797559594549C5C5D9D5F9F9E
:1002E0009E5E5A9A9B5B99595898884849894B8BCE
:1002F0008A4A4E8E8F4F8D4D4C8C4484854587475E
:1003000046868242438341818040F29A030128530A
:1003100004E0D76AD66AF294F28A00011200010161
:10032000615102080AE1625308E1635306E160B1DA
:1003300004D0020E655F608101D0609163696269DB
:10034000616B0301286B0001E0DFF2944EEF00F0D7
:10035000939C8A8C0101533D03D0543D01D003D0BE
:10036000532BD8B4542B563D03D0573D01D003D066
:10037000562BD8B4572B0001B13D03D0B23D01D06C
:1003800003D0B12BD8B4B22B02016851270808E37F
:1003900003E167510F0804E3672BD8B4682B06D03C
:1003A000010E01015D6F0201686B676B01015A5319
:1003B00005E15B5303E193988A9806D093988A8865
:1003C0005A51D8B45B075A07939C8A9C9E920001AD
:1003D0004EEF00F09EAAFED7ABCF1FF0AECF01F0DC
:1003E0001FA202D0AB98AB8810EF02F0010163515D
:1003F00003012819296F036A2951000176DE016E75
:10040000010162510118636F036A03012951000160
:10041000F4DEE8CF62F13CEF02F0939E8A8EDAD7E9
:1004200001C027F32B522DE0010160B12BD06153A5
:1004300008E16369626927C364F1612B656B676BCF
:1004400017D0612D04D027C366F1612B11D0615103
:1004500002080EE1653D02D0FE0E656F680E65254F
:10046000E96E010EEA6ED8B0EA2A27C3EFFF652BCA
:1004700027C328F30001BAD7010E0301286F00013A
:1004800044DF0101939E8A9E9E9A00014EEF00F088
:100490000301476B466B456B446B42C349F341C351
:1004A00048F34353D8B493D049C303F048C3E9FF9A
:1004B00049C3EAFFEFCF00F0016A026A036A03C092
:1004C00047F302C046F301C045F300C044F348516E
:1004D000D8B44907480748C3E9FF49C3EAFFEF50CA
:1004E0004C6B4B6B4A6F006A005044134A514513E2
:1004F0004B5146134C5147134851D8B4490748074C
:1005000048C3E9FF49C3EAFFEF504D6B4C6B4B6B9F
:100510004A6F030E4A174B6B4C6B4D6B006A016AB6
:1005200000504413015045134A5146134B51471391
:1005300048C3E9FF49C3EAFFEF504D6B4C6B4B6B6F
:100540004A6FE00E4A174B6B4C6B4D6B006A4A3595
:10055000016E4B35026E4C35036E013602360336A2
:1005600001360236033601360236033601360236CC
:100570000336E00E0116005044130150451302509B
:100580004613035047134851D8B44907480748C396
:10059000E9FF49C3EAFFEF504B6B4A6F006A016AFB
:1005A0004A35026E4B35036E023603360236033689
:1005B0000236033602360336E00E021600504413AC
:1005C00001504513025046130350471353D0020EF7
:1005D000485F000E495B48C3E9FF49C3EAFFEF509B
:1005E0004D6B4C6B4B6B4A6FE00E4A174B6B4C6B71
:1005F0004D6B4D31476F4C31466F4B31456F4A3132
:10060000446F4733463345334433473346334533EA
:100610004433473346334533443347334633453316
:100620004433070E47174851D8B44907480748C311
:10063000E9FF49C3EAFFEF504D6B4C6B4B6B4A6FC0
:100640004A35006E4B35016E4C35026E4D35036EEA
:1006500000360136023603360036013602360336DE
:10066000F80E001600504413015045130250461373
:100670000350471344C300F045C301F046C302F0E2
:1006800047C303F000011200939E8A8E030E0301FC
:10069000366F270E356F60AE17D0F10E6F146F6E88
:1006A0003499A490349174BE3481749E60A40BD0AC
:1006B000000E60B0010E070B006ED8900036F10EF0
:1006C00034150010346F20D00F0150AF19D0F10E47
:1006D0006F140A096F6E03013489A492349174BCBB
:1006E0003481749C0F015051070B070B006ED8909A
:1006F0000036F10E030134150010346F05D00F01E0
:10070000000E016E4CD0030165500F0B336F349B0C
:1007100065BC348B349D62B6348D000E34BD010E41
:100720003A6F0F0E426F640E416F3AC343F30001FC
:10073000AFDE03C032F302C031F301C030F300C0BA
:100740002FF30F0E0301396F660E386F376B33517D
:10075000375D14E238C3E9FF39C3EAFFEFCF3CF35A
:1007600036C3EAFF35C3E9FF3CC3EFFF352BD8B4EE
:10077000362B382BD8B4392B372BE9D7F10E6F1421
:100780006F6E349FA4BE348FA49E34A904D00F0191
:10079000509F03D00301609E0F01010E016E0152B4
:1007A00045E001015B6B320E5A6F03012F510308C4
:1007B00006E1305304E1315302E1325301E037D016
:1007C0003351080801E033D02751270801E22FD028
:1007D00027C35CF12735336F3337FC0E3317B30E65
:1007E0003325E96EEA6AD8B0EA2A2BC3EFFF010E7F
:1007F0003325B30FE96EEA6AD8B0EA2A2CC3EFFFBB
:10080000020E3325B30FE96EEA6AD8B0EA2A2DC387
:10081000EFFF030E3325B30FE96EEA6AD8B0EA2A78
:100820002EC3EFFF0101576B566B0F010301939E1F
:100830008A9EA49000014EEF00F0939E8A8E030ED4
:100840000301366F270E356F60AE17D0F10E6F14AF
:100850006F6E3499A490349174BE3481749E60A4F8
:100860000BD0000E60B0010E070B006ED890003662
:10087000F10E34150010346F20D00F0150AF19D095
:10088000F10E6F140A096F6E03013489A49234913A
:1008900074BC3481749C0F015051070B070B006E20
:1008A000D8900036F10E030134150010346F05D0D6
:1008B0000F01000E016E4CD0030165500F0B336F1A
:1008C000349B65BC348B349D62B6348D000E34BDD0
:1008D000010E3A6F0F0E426F640E416F3AC343F33D
:1008E0000001D6DD03C032F302C031F301C030F3A2
:1008F00000C02FF30F0E0301396F660E386F376B90
:100900003351375D14E238C3E9FF39C3EAFFEFCF53
:100910003CF336C3EAFF35C3E9FF3CC3EFFF352B99
:10092000D8B4362B382BD8B4392B372BE9D7F10E66
:100930006F146F6E349FA4BE348FA49E34A904D06C
:100940000F01509F03D00301609E0F01010E016E45
:10095000015245E001015B6B320E5A6F03012F51CA
:10096000030806E1305304E1315302E1325301E060
:1009700037D03351080801E033D02751270801E26E
:100980002FD027C35CF12735336F3337FC0E331775
:10099000B30E3325E96EEA6AD8B0EA2A2BC3EFFF1B
:1009A000010E3325B30FE96EEA6AD8B0EA2A2CC3E8
:1009B000EFFF020E3325B30FE96EEA6AD8B0EA2AD8
:1009C0002DC3EFFF030E3325B30FE96EEA6AD8B0EB
:1009D000EA2A2EC3EFFF0101576B566B0F0103018B
:1009E000939E8A9EA49200014EEF00F02320287768
:1009F0006F726C6429207663737461702E63202596
:100A000073202D206D792073657269616C202563D8
:100A1000256C750D0A0032392D4175672D31360070
:100A2000020EEA6E6A0EE96EEF5011E0020E016EE0
:100A3000BF0E006E0400002EFDD7012EF9D7960ED2
:100A4000006E002EFED700D00400EF2EEFD712006C
:100A5000080E016E00008B96949600000201753717
:100A60008B98D8B09488D8A09498948682A6FED704
:100A7000012E01D002D00001EDD700008B96949694
:100A80000000948800000000948682A6FED7016AC8
:100A9000000082B801808B9694968B989498000100
:100AA000120094880000948600008B9894980000AF
:100AB0008B9694960400090E006E002EFED700005F
:100AC0009A0E0201756F0001C3DF02017235746F67
:100AD00074377437F80E741774C275F20001B8DFFA
:100AE00073C275F2B5DF94980000948682A6FED793
:100AF000000000D0000094880000120093928A92B7
:100B00000A0E02016A6F00018BDF93928A820A0E3D
:100B100002016A6F000184DF030E0201726F800E12
:100B2000736F0001BEDF0201726B0C0E736F000168
:100B3000B8DF010E0201726F736B0001B2DF030EAA
:100B40000201726FBF0E736F0001ABDF020E020174
:100B5000726F100E736F0001A4DF030E0201726F3B
:100B6000736F00019EDF020E0201726F070E736F3A
:100B7000000197DF09EF07F002017439700B006E76
:100B8000D89000361F0E6F1400106F6E6ECF00F0FD
:100B9000003A0030070B745DF9E100011200706A41
:100BA000B80E716E050E726E76EF06F083C28AF291
:100BB00082C289F20201885352E089C2E9FF8AC2E7
:100BC000EAFF84C2EFFF8951D8B48A07890789C236
:100BD000E9FF8AC2EAFF85C2EFFF8951D8B48A07CC
:100BE000890789C2E9FF8AC2EAFF8651030BEF6ECB
:100BF00089C2E9FF8AC2EAFF86C200F000360036E9
:100C00000036F80E00160050E00BEF10EF6E89C2B0
:100C1000E9FF8AC2EAFFEF500809EF6E8951D8B4A4
:100C20008A07890789C2E9FF8AC2EAFF86C200F003
:100C3000003A0032070E00160050070BEF6E89C213
:100C4000E9FF8AC2EAFF87C200F0003600360036AC
:100C5000F80E00160050F80BEF10EF6E3FD089C26F
:100C6000E9FF8AC2EAFFEF6A8951D8B48A07890787
:100C700089C2E9FF8AC2EAFFEF6A8951D8B48A07BC
:100C8000890789C2E9FF8AC2EAFF84C200F0003AFC
:100C90000036E00E00160050E00BEF6E8951D8B41C
:100CA0008A07890789C2E9FF8AC2EAFF84C200F085
:100CB0000032003200321F0E001600501F0BEF6E84
:100CC00089C2E9FF8AC2EAFF85C200F0003A003615
:100CD000E00E00160050E00BEF10EF6E0001120066
:100CE000040E0201746F000147DF59D7606A9F0E3E
:100CF0006014606E608460CF50FF738A7398739E37
:100D0000739C0F0E0201836F1B0E826F876B866BC5
:100D1000856B846B886B000149DF0F0E0201836FC6
:100D2000030E826F876B866B856B846B886B00010B
:100D30003DDF0F0E0201836F070E826F876B866B9C
:100D4000856B846B886B000131DF0F0E0201836FAE
:100D50001F0E826F876B866B856B846B886B0001BF
:100D600025DF0F0E0201836F0B0E826F876B866B80
:100D7000856B846B886B000119DF0F0E0201836F96
:100D8000826F876B866B856B846B886B00010EDFCF
:100D90000F0E0201836F130E826F876B866B856B5C
:100DA000846B886B000102DF0F0E0201836F170E48
:100DB000826F876B866B856B846B886B0001F6DEB8
:100DC0009350FB0B08090201936E746B0001D4DE93
:100DD0001200016603D0026602D007D0022A00C0CA
:100DE000EEFF012EFCD7022EFAD71200720ED36E40
:100DF000D350C290080E0609CA6E3D0ECB6EF19E0E
:100E00000A0E02016A6F00010BDE949A8B9A2B6A1C
:100E100075D666DFA380A382A38E2D6A2F6A2E6A01
:100E2000B269B169B06BEA6A300EE96E006A026AB3
:100E3000800E016ECEDF0101556B546B536B576909
:100E40005669EA6AB30EE96E006A026AA00E016E84
:100E50000001BFDF01015C695D6B9D8A9D8200011D
:100E6000D4EF0BF00201736B72C203F07151D8B46E
:100E700072077107746F03C075F2745302E1755302
:100E800032E070C203F06F51E96E03C0EAFF6E51A9
:100E9000036E6D516D2BD8B46E2B766F03C077F255
:100EA000F2CF78F2F29E77C2AAFF76C2A9FFA69C83
:100EB000A69EA680A85078BFF28EEF6E70C203F097
:100EC0006F51E96E03C0EAFFEFCF74F273C276F29E
:100ED00074C277F276517719016E01C073F26F2BED
:100EE000D8B4702BC1D773C201F000011EEF08F017
:100EF0000201746B73C203F07251D8B473077207A6
:100F0000756F03C076F2755302E176533EE071C20D
:100F100003F07051E96E03C0EAFFEFCF75F274C2BF
:100F200076F275C277F276517719016E01C074F2CC
:100F30006F51036E6E516E2BD8B46F2B756F03C05B
:100F400076F27151036E7051702BD8B4712BE96E2B
:100F500003C0EAFFEFCF77F276C2AAFF75C2A9FFFE
:100F600077C2A8FFA69CA69EA684F250006EF29EB1
:100F70000F01550EA76EAA0EA76EA682A6B2FED7C7
:100F8000A6940050F2120201B5D774C201F000011C
:100F9000DBEF07F0040002016D6B200E6C6F6F6BCE
:100FA000010E6E6F6DC271F26CC270F2736B0B0E3C
:100FB000726F00019DD701C06BF2AA6AA96A6BC269
:100FC000A8FFA69CA69EA684F250006EF29E0F017A
:100FD000550EA76EAA0EA76EA682A6B2FED7A6943D
:100FE0000050F212040000010DEF08F00101596BEE
:100FF000960E586F610E206E410E226E120E246EF8
:10100000890E236E286A296A010E2A6E256A276ACC
:10101000266A1D0E216E0001BDD7120002016C6B05
:10102000200E6B6F6E6B010E6D6F6CC270F26BC237
:101030006FF2726B0B0E716F000114D701C06AF270
:10104000F2CF6BF2F29EAA6AA96AA69CA69EA6801F
:10105000A85002016BBFF28E6A5D06E12050600865
:1010600003E220507A0803E20001C0DF0201000120
:10107000D5EF0BF00900F6CF6BF2F7CF6CF2F5501D
:101080009EA8FED7AD6E6BC2F6FF6CC2F7FF0201E1
:101090006A2F01D002D00001EDD700011200090033
:1010A000F5520DE0F6CF6AF2F7CF6BF2F5509EA83D
:1010B000FED7AD6E6AC2F6FF6BC2F7FFF0D7E6EF60
:1010C0000BF0EACF72F2E9CF71F202016B39F0094D
:1010D0006D6F6D27E20F6E6F320F706F6B510F0BDC
:1010E0006E276E277027E90F6F6F6F276F276A399A
:1010F0000F0B6F2770276F377037701F70376A516B
:101100000F0B70276D37070E6C6F0A0E6F07702775
:10111000FDE36E076F27FDE36D076E27FDE36C07A8
:101120006D27FDE3020EEA6E6C0EE96E070E711577
:10113000719DE926700EE95CD8B4718DEF50006E98
:1011400008E171BD06D071B90CD071B702D0200E84
:1011500003D071877199300E002600509EA8FED7EB
:10116000AD6EEE5071ADE6D70001FAEF0BF0080E50
:1011700002016E6F00C06FF294880000948682A610
:10118000FED782B8D88082A8D89001360000949605
:101190008B966E2FF1D7948800008B986F51D8A44E
:1011A00094980000948682A6FED700008B969496B1
:1011B00000008B989498000115EF09F094880000C6
:1011C000948600008B98949800008B969496040067
:1011D000090E006E002EFED700009A0E0201756FF8
:1011E000000136DC02016B356D6F6D376D37F80E1F
:1011F0006D176DC275F200012BDC94880000948697
:10120000000082A6FED78B98949800008B96949647
:101210000400090E006E002EFED700009B0E020196
:10122000756F000115DC006AA2D701C06CF29498BA
:101230000000948682A6FED7000000D000009488AB
:10124000000002016CC201F000011200050E020153
:101250006B6F0001B3DF0150010B016E1200F6DF6E
:10126000015219E0F3DF015216E002016B6B00013D
:10127000A5DF015001C06AF2B26BB16BB0517F08BB
:1012800009E3B051B02B300FE96EEA6AD8B0EA2A10
:101290006AC2EFFFE7D728EF0CF00F0E0201806F54
:1012A000660E7F6F0F0140B708D0F10E6F1408096A
:1012B0006F6E0201816B1BD00F0130B709D0F10EA8
:1012C0006F1406096F6E010E0201816F10D00F01BD
:1012D00020B709D0F10E6F1404096F6E020E0201DF
:1012E000816F05D00F01000E016E3DD002017B51D0
:1012F000030B006EFC0E60140010606E0F0E836F07
:10130000640E826F77C287F276C286F275C285F26A
:1013100074C284F27CC288F2000148DC7AC265FFA4
:10132000659C02017DB1658C7E6B7A517E5D14E215
:1013300078C2E9FF79C2EAFFEFCF84F280C2EAFF08
:101340007FC2E9FF84C2EFFF7F2BD8B4802B782BBC
:10135000D8B4792B7E2BE9D76086F10E6F146F6EAF
:10136000010E016E0F010001D4EF09F002016F6B55
:101370006E6B6D6B030E6C6F6BC270F2716B726B88
:10138000736B6FC277F26EC276F26DC275F26CC289
:1013900074F2020E796F700E786F040E7A6F7B6BA9
:1013A0007C6B7D6B000179D7015202E16F8898DC7C
:1013B00043EF0CF003012469236921512107000A3E
:1013C00026E020C303F01F511F2BD8B4202BE96E59
:1013D00003C0EAFFEF50231B226B2251070816E3DC
:1013E0002351010B006E036A005003100AE0D890ED
:1013F0002431266F2331010A236F2651A00A246F5E
:1014000003D0D89024332333222BE7D7D6D723C356
:1014100001F024C302F0000112009EA8FED7AD6EB9
:101420001200020EEA6E6E0EE96E006A026AB10EDA
:10143000016ECFDC230E02016E6F22C06FF224C05A
:1014400070F223C071F27269120E736F746BB30E77
:10145000756F5FC176F202015EC177F20201060E7E
:10146000786F400E796F7A6B25C07BF227C07CF2D3
:1014700026C07DF27E6BA390A3926C6B6C519F088B
:1014800068E3110E6C256D6F036A6D516E0F016E6E
:10149000020E0322010E02016C25B30FE96EEA6A07
:1014A000D8B0EA2AEFCF21F3030103C0EAFF01C05D
:1014B000E9FF21C3EFFF010E02016D25036A6E0FE4
:1014C000016E020E0322B30E02016C25E96EEA6A78
:1014D000D8B0EA2AEFCF21F3030103C0EAFF01C02D
:1014E000E9FF21C3EFFF020E02016D25036A6E0FB3
:1014F000016E020E0322030E02016C25B30FE96E8A
:10150000EA6AD8B0EA2AEFCF21F3030103C0EAFF69
:1015100001C0E9FF21C3EFFF030E02016D25036A3D
:101520006E0F016E020E0322020E02016C25B30F34
:10153000E96EEA6AD8B0EA2AEFCF21F3030103C0CB
:10154000EAFF01C0E9FF21C3EFFF040E02016C278F
:1015500095D70101025309E1015307E1005305E169
:101560000001FF5106080DE0010157512D080DE261
:10157000FF0AD8B402D0000104D05651E00805E2B9
:101580000001939A8A8A04D00101939A8A9A0001F1
:10159000A380A382020E0301206F6F0E1F6FB00E97
:1015A000216F000107DF02C06BF201C06AF2020185
:1015B0006C6B6C51B00810E3036A6C516E0FE96EEE
:1015C000020E0320EA6EEFCF1FF303011F5100014B
:1015D00024DF02016C2BEDD76BC21FF303011F51F7
:1015E00000011BDF6AC21FF303011F51000115DF59
:1015F00001015E2BD8B45F2B949A8B8A00014CEFCB
:101600000CF00201726B71C273F2000151EC05F033
:10161000ADEF0BF002016F81282C2AD06F9135506D
:10162000170826E10001B0510A08D8A002D0020133
:101630001FD0255208E1265206E1275204E102019B
:101640006F8116D000012550315C13E132C071F278
:1016500033C070F226500201335CD8B402D00001CE
:1016600008D02750715DD8B402D0000102D06F813C
:10167000000102016FB105D00001B06B000E016ED8
:1016800073D00001B05161081CE290C06DF291C0AE
:101690006CF20301206B310E1F6F5F0E216F000192
:1016A00089DE02C06BF201C06AF202016C516A5D10
:1016B00003E16D516B5D06E00001B06B000E016E41
:1016C00053D0020131505A0828E132C003F03350A0
:1016D000940823E10350260820E10001B05161087D
:1016E000D8A002D0020119D022C031F024C032F0BB
:1016F00023C033F00301206B310E1F6F5F0E216F8B
:10170000000158DE02C06BF201C06AF26BC290F0B9
:1017100002016AC291F0000102016E6B6E51610814
:101720001FE32A520CE0300E6E25E96EEA6AD8B04B
:10173000EA2AEFCF70F2705100016FDE02012952E8
:101740000DE0300E6E25E96EEA6AD8B0EA2AEFCFD6
:1017500070F270C271F2000154D702016E2BDED715
:101760000001B06B010E016E59EF0CF0F86AD09ECB
:10177000078EEA6AE96A1F6AB8960C0EAF6EA20E6F
:10178000AC6E900EAB6E01015F6B5E6B6091616B36
:101790000201686B676BC150C00B0F09C16E196AFB
:1017A0001A6A0001F6EF06F039D420DCC00EF212FE
:1017B000EC0EF66E090EF76E130E02016A6F000151
:1017C00059DC160EF66E0A0EF76E69D4010EF66E2F
:1017D0000A0EF76E0D0E02016A6F00014BDC2250FB
:1017E0009EA8FED7AD6E100EE96E24C06BF223C02A
:1017F0006AF267D40D0E9EA8FED7AD6E0A0E9EA8A3
:10180000FED7AD6E0101596BC80E586FA00E0201D4
:101810006A6F000110EC05F0010E01015B6F900E84
:101820005A6FA00E02016A6F000110EC05F0010171
:10183000596B586BA00E02016A6F000110EC05F0A5
:1018400001015B6B5A6B0201696B0400000107D553
:101850000F0140A704D030A702D020B717D0010154
:10186000545306E153511808D8A002D00F010ED0EE
:1018700002016951280801E1696B6951692B6A6F9E
:101880006B6F000173D50101546B536B01015D5304
:1018900005E05D6B0001C5D504D00101949A8B9AD7
:1018A0000001B05306E0B25303E1B151320801E246
:0818B000B1D60201CAD7FFD72F
:04FDBC00B6EF0BF0A3
:020000040030CA
:0E000000004F191A008630000FC00FE00F40AD
:00000001FF
;PIC18F2680
;CRC=A676  CREATED="29-Aug-16 15:19"
