:020000040000FA
:04000000E0EF7EF0BF
:04FDBC000000000043
:10FDC000700ED36E4B6AACD8476AC80EB4D8C1085F
:10FDD00005E0472A4750020840E0F7D73A0EBCD862
:10FDE000830EBAD8020EB8D84B0EB6D8416AA2D844
:10FDF000F86EA0D8F76EAA6E9DD8F66EA96E9AD846
:10FE00004A6E98D8426E436E00EE00F093D8EE6EC4
:10FE1000422EFCD7416677D04AA210D0F8660ED0A9
:10FE2000F7660CD0F6660AD000EE00F0E00EEE6E3B
:10FE3000EF0EEE6E7E0EEE6EF00EEE6E00EE00F049
:10FE40004AA002D04B68D0D74AB209D04AB448D0B1
:10FE50004AB650D0550E80D8C9D769D8AFD7000060
:10FE6000F8CF4CF0F7CF4DF0F6CF4EF0060E446EC3
:10FE7000D8904C324D324E32442EFBD7030E4D5C9F
:10FE800016E6030E4D5C03E1F70E4E5C10E6030E22
:10FE90004D5C02E001E60BD0030E4D5C05E1FF0E68
:10FEA0004E5C02E001E603D0500E56D89FD74BA01F
:10FEB00003D0940E2BD84B6A400E486E496EEECF9D
:10FEC000F5FF0D00482EFBD70A00840E1FD800EE68
:10FED0003FF00A00ED50F56213D0492EFAD784D7CF
:10FEE000EFCFA8FF040E12D8010EA680EF50A86233
:10FEF00007D07AD7EFCFF5FF0C00C40E07D874D720
:10FF0000560E2AD873D74E0E27D870D7A66E550E28
:10FF1000A76EAA0EA76EA682A6B2FED7A69412005E
:10FF2000240EAC6E080EAF6E900EAB6E1200AB6A74
:10FF3000AC6A1200C80E446E0D0E456E466A04008F
:10FF40009EAA03D0AE5041261200462EF8D7452E69
:10FF5000F5D7442EF1D781D7ACA2FED7AD6E1200F3
:020000040030CA
:03000100081619C5
:02000500008178
:060008000FC00FE00F40E5
:00000001FF
