:10000000A49EA49E4EEF00F0046ED8CF05F0E0CF82
:1000100006F00001E9CF0CF0EACF07F0E1CF08F0DD
:10002000E2CF09F0D9CF0AF0DACF0BF0F3CF12F01C
:10003000F4CF13F0FACF14F0F5CF15F0F6CF16F099
:10004000F7CF17F000C00EF001C00FF002C010F0A3
:1000500003C011F0F2AA30EF00F0F2B48FEF01F01C
:100060009DA236EF00F09EB2A8EF01F09DAA3CEFF2
:1000700000F09EBA12EF02F0A3AE42EF00F0A4BE71
:1000800000EF00F0A3A248EF00F0A4B21EEF04F0CE
:10009000A3A04EEF00F0A4B049EF03F00EC000F0B3
:1000A0000FC001F010C002F011C003F00CC0E9FF56
:1000B00007C0EAFF078E08C0E1FF09C0E2FF0AC0DF
:1000C000D9FF0BC0DAFF12C0F3FF13C0F4FF14C056
:1000D000FAFF15C0F5FF16C0F6FF17C0F7FF045072
:1000E00006C0E0FF05C0D8FF1000F76AFA0FF66EF1
:1000F000000EF7220900F550120000C1814001C036
:10010000804101C0804100C1814001C0804100C1E7
:10011000814000C1814001C0804101C0804100C1D7
:10012000814000C1814001C0804100C1814001C0C7
:10013000804101C0804100C1814001C0804100C1B7
:10014000814000C1814001C0804100C1814001C0A7
:10015000804101C0804100C1814000C1814001C097
:10016000804101C0804100C1814001C0804100C187
:10017000814000C1814001C0804101C0804100C177
:10018000814000C1814001C0804100C1814001C067
:10019000804101C0804100C1814000C1814001C057
:1001A000804101C0804100C1814001C0804100C147
:1001B000814000C1814001C0804100C1814001C037
:1001C000804101C0804100C1814001C0804100C127
:1001D000814000C1814001C0804101C0804100C117
:1001E000814000C1814001C0804100C1814001C007
:1001F000804101C0804100C18140F76A0A0FF66E5C
:10020000020EF7220900F550120000C0C101C3031D
:1002100002C2C60607C705C5C404CC0C0DCD0FCF5E
:10022000CE0E0ACACB0BC90908C8D81819D91BDBCE
:10023000DA1A1EDEDF1FDD1D1CDC14D4D515D7171E
:1002400016D6D21213D311D1D010F03031F133F3CE
:10025000F23236F6F737F53534F43CFCFD3DFF3F1E
:100260003EFEFA3A3BFB39F9F83828E8E929EB2B4E
:100270002AEAEE2E2FEF2DEDEC2CE42425E527E7DE
:10028000E62622E2E323E12120E0A06061A163A34E
:10029000A26266A6A767A56564A46CACAD6DAF6FDE
:1002A0006EAEAA6A6BAB69A9A86878B8B979BB7B4E
:1002B0007ABABE7E7FBF7DBDBC7CB47475B577B79E
:1002C000B67672B2B373B17170B0509091519353CE
:1002D000529296565797559594549C5C5D9D5F9F9E
:1002E0009E5E5A9A9B5B99595898884849894B8BCE
:1002F0008A4A4E8E8F4F8D4D4C8C4484854587475E
:1003000046868242438341818040F29A030126530C
:1003100004E0D76AD66AF294F28A00011200010161
:100320005F5102080AE1605308E1615306E15EB1E2
:1003300004D0020E635F5E8101D05E9161696069E5
:100340005F6B0301266B0001E0DFF2944EEF00F0DB
:10035000939C8A8C0101533D03D0543D01D003D0BE
:10036000532BD8B4542B0001B13D03D0B23D01D082
:1003700003D0B12BD8B4B22B02016651270808E391
:1003800003E165510F0804E3652BD8B4662B06D052
:10039000010E01015B6F0201666B656B0101585331
:1003A00005E1595303E193988A9806D093988A8877
:1003B0005851D8B459075807565305E1575303E12C
:1003C000939A8A9A06D0939A8A8A5651D8B4570734
:1003D0005607939C8A9C9E9200014EEF00F09EAAC5
:1003E000FED7ABCF1FF0AECF01F01FA202D0AB986B
:1003F000AB8815EF02F00101615103012619276F47
:10040000036A2751000171DE016E0101605101187C
:10041000616F036A030127510001EFDEE8CF60F14D
:1004200041EF02F0939E8A8EDAD701C025F32B525A
:100430002DE001015EB12BD05F5308E16169606975
:1004400025C362F15F2B636B656B17D05F2D04D002
:1004500025C364F15F2B11D05F5102080EE1633DAB
:1004600002D0FE0E636F660E6325E96E010EEA6E22
:10047000D8B0EA2A25C3EFFF632B25C326F300017A
:10048000BAD7010E0301266F00013FDF0101939EE1
:100490008A9E9E9A00014EEF00F00301456B446B6B
:1004A000436B426B40C347F33FC346F34153D8B459
:1004B00093D047C303F046C3E9FF47C3EAFFEFCF3A
:1004C00000F0016A026A036A03C045F302C044F304
:1004D00001C043F300C042F34651D8B44707460772
:1004E00046C3E9FF47C3EAFFEF504A6B496B486FC9
:1004F000006A0050421348514313495144134A5172
:1005000045134651D8B44707460746C3E9FF47C3DA
:10051000EAFFEF504B6B4A6B496B486F030E48176D
:10052000496B4A6B4B6B006A016A005042130150E1
:100530004313485144134951451346C3E9FF47C388
:10054000EAFFEF504B6B4A6B496B486FE00E481760
:10055000496B4A6B4B6B006A4835016E4935026E38
:100560004A35036E0136023603360136023603364B
:10057000013602360336013602360336E00E011626
:1005800000504213015043130250441303504513CB
:100590004651D8B44707460746C3E9FF47C3EAFFB9
:1005A000EF50496B486F006A016A4835026E493561
:1005B000036E02360336023603360236033602363F
:1005C0000336E00E0216005042130150431302504E
:1005D00044130350451353D0020E465F000E475B91
:1005E00046C3E9FF47C3EAFFEF504B6B4A6B496BC9
:1005F000486FE00E4817496B4A6B4B6B4B31456FA8
:100600004A31446F4931436F4831426F4533443377
:100610004333423345334433433342334533443326
:10062000433342334533443343334233070E451794
:100630004651D8B44707460746C3E9FF47C3EAFF18
:10064000EF504B6B4A6B496B486F4835006E49352C
:10065000016E4A35026E4B35036E003601360236A6
:1006600003360036013602360336F80E0016005007
:10067000421301504313025044130350451342C325
:1006800000F043C301F044C302F045C303F000018E
:100690001200939E8A8E030E0301346F250E336F72
:1006A00060AE17D0F10E6F146F6E3299A490329134
:1006B00074BE3281749E60A40BD0000E60B0010E37
:1006C000070B006ED8900036F10E32150010326F15
:1006D00020D00F0150AF19D0F10E6F140A096F6EC0
:1006E00003013289A492329174BC3281749C0F014F
:1006F0005051070B070B006ED8900036F10E030126
:1007000032150010326F05D00F01000E016E4CD073
:10071000030165500F0B316F329B65BC328B329DEC
:1007200062B6328D000E32BD010E386F0F0E406F73
:10073000640E3F6F38C341F30001AFDE03C030F3F6
:1007400002C02FF301C02EF300C02DF30F0E0301E2
:10075000376F660E366F356B3151355D14E236C337
:10076000E9FF37C3EAFFEFCF3AF334C3EAFF33C3FD
:10077000E9FF3AC3EFFF332BD8B4342B362BD8B470
:10078000372B352BE9D7F10E6F146F6E329FA4BE55
:10079000328FA49E32A904D00F01509F03D00301D1
:1007A000609E0F01010E016E015242E00101596B82
:1007B000320E586F03012D51030806E12E5304E158
:1007C0002F5302E1305301E032D03151080801E0EB
:1007D0002ED02551270801E22AD025C35AF125350C
:1007E000316F3137FC0E3117B30E3125E96EEA6AED
:1007F000D8B0EA2A29C3EFFF010E3125B30FE96E05
:10080000EA6AD8B0EA2A2AC3EFFF020E3125B30FF5
:10081000E96EEA6AD8B0EA2A2BC3EFFF030E31254E
:10082000B30FE96EEA6AD8B0EA2A2CC3EFFF0F01D2
:10083000939E8A9EA49000014EEF00F0939E8A8EB4
:10084000030E0301346F250E336F60AE17D0F10E27
:100850006F146F6E3299A490329174BE3281749E7F
:1008600060A40BD0000E60B0010E070B006ED89094
:100870000036F10E32150010326F20D00F0150AF4C
:1008800019D0F10E6F140A096F6E03013289A49218
:10089000329174BC3281749C0F015051070B070BCD
:1008A000006ED8900036F10E030132150010326F41
:1008B00005D00F01000E016E4CD0030165500F0BE7
:1008C000316F329B65BC328B329D62B6328D000E29
:1008D00032BD010E386F0F0E406F640E3F6F38C38C
:1008E00041F30001DADD03C030F302C02FF301C091
:1008F0002EF300C02DF30F0E0301376F660E366F17
:10090000356B3151355D14E236C3E9FF37C3EAFF79
:10091000EFCF3AF334C3EAFF33C3E9FF3AC3EFFF43
:10092000332BD8B4342B362BD8B4372B352BE9D70F
:10093000F10E6F146F6E329FA4BE328FA49E32A947
:1009400004D00F01509F03D00301609E0F01010EE0
:10095000016E015242E00101596B320E586F0301E2
:100960002D51030806E12E5304E12F5302E13053C9
:1009700001E032D03151080801E02ED0255127087E
:1009800001E22AD025C35AF12535316F3137FC0EEB
:100990003117B30E3125E96EEA6AD8B0EA2A29C3C5
:1009A000EFFF010E3125B30FE96EEA6AD8B0EA2AEB
:1009B0002AC3EFFF020E3125B30FE96EEA6AD8B001
:1009C000EA2A2BC3EFFF030E3125B30FE96EEA6A63
:1009D000D8B0EA2A2CC3EFFF0F01939E8A9EA492FF
:1009E00000014EEF00F0232028776F726C642920FD
:1009F0007663737461702E63202573202D206D79CA
:100A00002073657269616C202563256C750D0A0081
:100A100031392D4175672D313500020EEA6E680EB1
:100A2000E96EEF5011E0020E016EBF0E006E040081
:100A3000002EFDD7012EF9D7960E006E002EFED7A0
:100A400000D00400EF2EEFD71200080E016E000058
:100A50008B9694960000020173378B98D8B09488D7
:100A6000D8A09498948682A6FED7012E01D002D0F9
:100A70000001EDD700008B9694960000948800004A
:100A80000000948682A6FED7016A000082B8018029
:100A90008B9694968B98949800011200948800008D
:100AA000948600008B98949800008B96949604008E
:100AB000090E006E002EFED700009A0E0201736F21
:100AC0000001C3DF02017035726F72377237F80EA2
:100AD000721772C273F20001B8DF71C273F2B5DF30
:100AE00094980000948682A6FED7000000D00000F3
:100AF00094880000120093928A920A0E0201686F95
:100B000000018BDF93928A820A0E0201686F000156
:100B100084DF030E0201706F800E716F0001BEDF73
:100B20000201706B0C0E716F0001B8DF010E020143
:100B3000706F716B0001B2DF030E0201706FBF0EA8
:100B4000716F0001ABDF020E0201706F100E716F4A
:100B50000001A4DF030E0201706F716F00019EDFC0
:100B6000020E0201706F070E716F000197DF07EF31
:100B700007F002016839700B006ED89000361F0E26
:100B80006F1400106F6E6ECF00F0003A0030070B4C
:100B9000685DF9E100011200706AB80E716E050E11
:100BA000726E73EF06F081C288F280C287F2020192
:100BB000865352E087C2E9FF88C2EAFF82C2EFFF94
:100BC0008751D8B48807870787C2E9FF88C2EAFF40
:100BD00083C2EFFF8751D8B48807870787C2E9FF30
:100BE00088C2EAFF8451030BEF6E87C2E9FF88C217
:100BF000EAFF84C200F0003600360036F80E001618
:100C00000050E00BEF10EF6E87C2E9FF88C2EAFFE9
:100C1000EF500809EF6E8751D8B48807870787C25D
:100C2000E9FF88C2EAFF84C200F0003A0032070EF2
:100C300000160050070BEF6E87C2E9FF88C2EAFF7B
:100C400085C200F0003600360036F80E001600505F
:100C5000F80BEF10EF6E3FD087C2E9FF88C2EAFFC2
:100C6000EF6A8751D8B48807870787C2E9FF88C22F
:100C7000EAFFEF6A8751D8B48807870787C2E9FF80
:100C800088C2EAFF82C200F0003A0036E00E001689
:100C90000050E00BEF6E8751D8B48807870787C2F2
:100CA000E9FF88C2EAFF82C200F00032003200325F
:100CB0001F0E001600501F0BEF6E87C2E9FF88C29F
:100CC000EAFF83C200F0003A0036E00E0016005042
:100CD000E00BEF10EF6E00011200040E0201686FCE
:100CE000000147DF59D7606A9F0E6014606E608410
:100CF00060CF50FF738A7398739E739C0F0E02012E
:100D0000816F1B0E806F856B846B836B826B866B30
:100D1000000149DF0F0E0201816F030E806F856BAA
:100D2000846B836B826B866B00013DDF0F0E0201CB
:100D3000816F070E806F856B846B836B826B866B14
:100D4000000131DF0F0E0201816F1F0E806F856B76
:100D5000846B836B826B866B000125DF0F0E0201B3
:100D6000816F0B0E806F856B846B836B826B866BE0
:100D7000000119DF0F0E0201816F806F856B846B9C
:100D8000836B826B866B00010EDF0F0E0201816F99
:100D9000130E806F856B846B836B826B866B000197
:100DA00002DF0F0E0201816F170E806F856B846B5F
:100DB000836B826B866B0001F6DE9350FB0B080998
:100DC0000201936E686B0001D4DE08EF07F0016644
:100DD00003D0026602D007D0022A00C0EEFF012E27
:100DE000FCD7022EFAD71200720ED36ED350C290E7
:100DF000080E0609CA6E3D0ECB6EF19E0A0E020168
:100E0000686F00010ADE949A8B9A2B6A74D665D7B4
:100E1000A380A382A38E2D6A2F6A2E6AB269B1695C
:100E2000B06BEA6A300EE96E006A026A800E016EEB
:100E3000CEDF0101556B546B536BEA6AB30EE96E5A
:100E4000006A026AA00E016E0001C1DF01015A6949
:100E50005B6B9D8A9D820001AFEF0BF00201716B0D
:100E600070C203F06F51D8B470076F07726F03C080
:100E700073F2725302E1735332E06EC203F06D51AC
:100E8000E96E03C0EAFF6C51036E6B516B2BD8B453
:100E90006C2B746F03C075F2F2CF76F2F29E75C2BE
:100EA000AAFF74C2A9FFA69CA69EA680A85076BFE2
:100EB000F28EEF6E6EC203F06D51E96E03C0EAFF71
:100EC000EFCF72F271C274F272C275F27451751979
:100ED000016E01C071F26D2BD8B46E2BC1D771C2F7
:100EE00001F000011AEF08F00201726B71C203F009
:100EF0007051D8B471077007736F03C074F27353E5
:100F000002E174533EE06FC203F06E51E96E03C01C
:100F1000EAFFEFCF73F272C274F273C275F27451CA
:100F20007519016E01C072F26D51036E6C516C2B1C
:100F3000D8B46D2B736F03C074F26F51036E6E5192
:100F40006E2BD8B46F2BE96E03C0EAFFEFCF75F2BA
:100F500074C2AAFF73C2A9FF75C2A8FFA69CA69E71
:100F6000A684F250006EF29E0F01550EA76EAA0ED7
:100F7000A76EA682A6B2FED7A6940050F212020176
:100F8000B5D772C201F00001D7EF07F004000201EB
:100F90006B6B200E6A6F6D6B010E6C6F6BC26FF224
:100FA0006AC26EF2716B0B0E706F00019DD701C0AB
:100FB00069F2AA6AA96A69C2A8FFA69CA69EA6842D
:100FC000F250006EF29E0F01550EA76EAA0EA76E8C
:100FD000A682A6B2FED7A6940050F2120400000129
:100FE00009EF08F00101576B960E566F610E206EE7
:100FF000410E226E120E246E4F0E236E286A296A4D
:10100000010E2A6E256A276A266A1D0E216E0001CE
:10101000BDD7120002016A6B200E696F6C6B010E66
:101020006B6F6AC26EF269C26DF2706B0B0E6F6FFE
:10103000000114D701C068F2F2CF69F2F29EAA6AE9
:10104000A96AA69CA69EA680A850020169BFF28E3E
:10105000685D06E12050600803E220507A0803E250
:101060000001C0DF02010001B0EF0BF00900F6CF74
:1010700069F2F7CF6AF2F5509EA8FED7AD6E69C24D
:10108000F6FF6AC2F7FF0201682F01D002D000010B
:10109000EDD7000112000900F5520DE0F6CF68F21D
:1010A000F7CF69F2F5509EA8FED7AD6E68C2F6FF85
:1010B00069C2F7FFF0D7C1EF0BF0EACF70F2E9CFCA
:1010C0006FF202016939F0096B6F6B27E20F6C6FE9
:1010D000320F6E6F69510F0B6C276C276E27E90F6B
:1010E0006D6F6D276D2768390F0B6D276E276D3774
:1010F0006E376E1F6E3768510F0B6E276B37070EFA
:101100006A6F0A0E6D076E27FDE36C076D27FDE31E
:101110006B076C27FDE36A076B27FDE3020EEA6E9F
:101120006A0EE96E070E6F156F9DE9266E0EE95C7B
:10113000D8B46F8DEF50006E08E16FBD06D06FB967
:101140000CD06FB702D0200E03D06F876F99300E8E
:10115000002600509EA8FED7AD6EEE506FADE6D7CC
:101160000001D5EF0BF0080E02016C6F00C06DF2AC
:1011700094880000948682A6FED782B8D88082A880
:10118000D8900136000094968B966C2FF1D79488F6
:1011900000008B986D51D8A494980000948682A684
:1011A000FED700008B96949600008B9894980001CF
:1011B00011EF09F094880000948600008B989498B1
:1011C00000008B9694960400090E006E002EFED748
:1011D00000009A0E0201736F000137DC02016935CD
:1011E0006B6F6B376B37F80E6B176BC273F20001C6
:1011F0002CDC948800009486000082A6FED78B9891
:10120000949800008B9694960400090E006E002EB0
:10121000FED700009B0E0201736F000116DC006A0E
:10122000A2D701C06AF294980000948682A6FED7E5
:10123000000000D000009488000002016AC201F0A2
:1012400000011200050E0201696F0001B3DF0150B9
:10125000010B016E1200F6DF015219E0F3DF0152BB
:1012600016E00201696B0001A5DF015001C068F2C0
:10127000B26BB16BB0517F0809E3B051B02B300FA6
:10128000E96EEA6AD8B0EA2A68C2EFFFE7D703EF4F
:101290000CF00F0E02017E6F660E7D6F0F0140B7DE
:1012A00008D0F10E6F1408096F6E02017F6B1BD01E
:1012B0000F0130B709D0F10E6F1406096F6E010EE1
:1012C00002017F6F10D00F0120B709D0F10E6F140B
:1012D00004096F6E020E02017F6F05D00F01000E30
:1012E000016E3DD002017951030B006EFC0E6014BB
:1012F0000010606E0F0E816F640E806F75C285F2F4
:1013000074C284F273C283F272C282F27AC286F22B
:10131000000149DC78C265FF659C02017BB1658CE8
:101320007C6B78517C5D14E276C2E9FF77C2EAFFFC
:10133000EFCF82F27EC2EAFF7DC2E9FF82C2EFFFF9
:101340007D2BD8B47E2B762BD8B4772B7C2BE9D78A
:101350006086F10E6F146F6E010E016E0F010001B9
:10136000D0EF09F002016D6B6C6B6B6B030E6A6F53
:1013700069C26EF26F6B706B716B6DC275F26CC28D
:1013800074F26BC273F26AC272F2020E776F6E0E63
:10139000766F040E786F796B7A6B7B6B000179D76F
:1013A000015200E11EEF0CF00301226921691F5177
:1013B0001F07000A26E01EC303F01D511D2BD8B4E1
:1013C0001E2BE96E03C0EAFFEF50211B206B20515A
:1013D000070816E32151010B006E036A0050031049
:1013E0000AE0D8902231246F2131010A216F245163
:1013F000A00A226F03D0D89022332133202BE7D7C5
:10140000D6D721C301F022C302F0000112009EA82A
:10141000FED7AD6E1200020EEA6E6C0EE96E006A27
:10142000026AB10E016ED3DC230E02016C6F22C082
:101430006DF224C06EF223C06FF27069120E716FEC
:10144000726BB30E736F5DC174F202015CC175F211
:101450000201060E766F400E776F786B25C079F229
:1014600027C07AF226C07BF27C6BA390A3926A6BB2
:101470006A519F0868E3110E6A256B6F036A6B510E
:101480006C0F016E020E0322010E02016A25B30FDA
:10149000E96EEA6AD8B0EA2AEFCF1FF3030103C06E
:1014A000EAFF01C0E9FF1FC3EFFF010E02016B2538
:1014B000036A6C0F016E020E0322B30E02016A254D
:1014C000E96EEA6AD8B0EA2AEFCF1FF3030103C03E
:1014D000EAFF01C0E9FF1FC3EFFF020E02016B2507
:1014E000036A6C0F016E020E0322030E02016A25CD
:1014F000B30FE96EEA6AD8B0EA2AEFCF1FF303010F
:1015000003C0EAFF01C0E9FF1FC3EFFF030E0201A2
:101510006B25036A6C0F016E020E0322020E02019C
:101520006A25B30FE96EEA6AD8B0EA2AEFCF1FF353
:10153000030103C0EAFF01C0E9FF1FC3EFFF040E70
:1015400002016A2795D7A380A382020E03011E6FB2
:101550006D0E1D6FB00E1F6F000126DF02C069F215
:1015600001C068F202016A6B6A51B00810E3036AB5
:101570006A516C0FE96E020E0320EA6EEFCF1DF385
:1015800003011D51000143DF02016A2BEDD769C23F
:101590001DF303011D5100013ADF68C21DF3030171
:1015A0001D51000134DF01015C2BD8B45D2B949AEE
:1015B0008B8A000127EF0CF00201706B6FC271F291
:1015C00000014EEC05F088EF0BF002016D81282C34
:1015D0002AD06D913550170826E10001B0510A0854
:1015E000D8A002D002011FD0255208E1265206E100
:1015F000275204E102016D8116D000012550315CB3
:1016000013E132C06FF233C06EF226500201335C38
:10161000D8B402D0000108D027506F5DD8B402D0F2
:10162000000102D06D81000102016DB105D0000101
:10163000B06B000E016E73D00001B05161081CE266
:1016400090C06BF291C06AF203011E6B310E1D6FE8
:101650005F0E1F6F0001A8DE02C069F201C068F2D0
:1016600002016A51685D03E16B51695D06E00001AA
:10167000B06B000E016E53D0020131505A0828E1C0
:1016800032C003F03350940823E10350260820E1D0
:101690000001B0516108D8A002D0020119D022C0C7
:1016A00031F024C032F023C033F003011E6B310E41
:1016B0001D6F5F0E1F6F000177DE02C069F201C06F
:1016C00068F269C290F0020168C291F00001020163
:1016D0006C6B6C5161081FE32A520CE0300E6C25D4
:1016E000E96EEA6AD8B0EA2AEFCF6EF26E510001D5
:1016F0008EDE020129520DE0300E6C25E96EEA6A99
:10170000D8B0EA2AEFCF6EF26EC26FF2000154D762
:1017100002016C2BDED70001B06B010E016E34EFBD
:101720000CF0F86AD09E078EEA6AE96A1F6AB896DA
:101730000C0EAF6EA20EAC6E900EAB6E01015D6B27
:101740005C6B5E915F6B0201666B656BC150C00B99
:101750000F09C16E196A1A6A0001F4EF06F05AD433
:1017600041DCC00EF212E60EF66E090EF76E130E95
:101770000201686F00017ADC100EF66E0A0EF76E39
:101780008AD4FB0EF66E090EF76E0D0E0201686F1D
:1017900000016CDC22509EA8FED7AD6E100EE96EE3
:1017A00024C069F223C068F288D40D0E9EA8FED72B
:1017B000AD6E0A0E9EA8FED7AD6E0101576BC80E26
:1017C000566FA00E0201686F00010DEC05F0010ECE
:1017D0000101596F900E586FA00E0201686F000151
:1017E0000DEC05F00101576B566BA00E0201686FFE
:1017F00000010DEC05F00101596B586B0201676B9C
:101800000400000128D50F0140A704D030A702D062
:1018100020B717D00101545306E153511808D8A03E
:1018200002D00F010ED002016751280801E1676B59
:101830006751672B686F696F000194D50101546B84
:10184000536B01015B5305E05B6B0001E4D504D0F1
:101850000101949A8B9A0001B05306E0B25303E160
:0E186000B151320801E2B1D60201CAD703002D
:04FDBC0091EF0BF0C8
:020000040030CA
:0E00000000CF1E1F0086B1000FC00FE00F40A2
:00000001FF
;PIC18F2680
;CRC=C815  CREATED="19-Aug-15 17:11"
